{
  "contractName": "WrappedHydra",
  "abi": [
    {
      "anonymous": false,
      "inputs": [
        {
          "indexed": true,
          "internalType": "address",
          "name": "owner",
          "type": "address"
        },
        {
          "indexed": true,
          "internalType": "address",
          "name": "spender",
          "type": "address"
        },
        {
          "indexed": false,
          "internalType": "uint256",
          "name": "value",
          "type": "uint256"
        }
      ],
      "name": "Approval",
      "type": "event"
    },
    {
      "anonymous": false,
      "inputs": [
        {
          "indexed": true,
          "internalType": "address",
          "name": "addr",
          "type": "address"
        },
        {
          "indexed": true,
          "internalType": "uint256",
          "name": "value",
          "type": "uint256"
        }
      ],
      "name": "BridgedIn",
      "type": "event"
    },
    {
      "anonymous": false,
      "inputs": [
        {
          "indexed": true,
          "internalType": "address",
          "name": "addr",
          "type": "address"
        },
        {
          "indexed": true,
          "internalType": "uint256",
          "name": "value",
          "type": "uint256"
        }
      ],
      "name": "BridgedOut",
      "type": "event"
    },
    {
      "anonymous": false,
      "inputs": [
        {
          "indexed": true,
          "internalType": "address",
          "name": "addr",
          "type": "address"
        }
      ],
      "name": "NewSigner",
      "type": "event"
    },
    {
      "anonymous": false,
      "inputs": [
        {
          "indexed": true,
          "internalType": "address",
          "name": "previousOwner",
          "type": "address"
        },
        {
          "indexed": true,
          "internalType": "address",
          "name": "newOwner",
          "type": "address"
        }
      ],
      "name": "OwnershipTransferred",
      "type": "event"
    },
    {
      "anonymous": false,
      "inputs": [],
      "name": "Paused",
      "type": "event"
    },
    {
      "anonymous": false,
      "inputs": [
        {
          "indexed": true,
          "internalType": "address",
          "name": "from",
          "type": "address"
        },
        {
          "indexed": true,
          "internalType": "address",
          "name": "to",
          "type": "address"
        },
        {
          "indexed": false,
          "internalType": "uint256",
          "name": "value",
          "type": "uint256"
        }
      ],
      "name": "Transfer",
      "type": "event"
    },
    {
      "anonymous": false,
      "inputs": [],
      "name": "Unpaused",
      "type": "event"
    },
    {
      "inputs": [
        {
          "internalType": "address",
          "name": "owner_",
          "type": "address"
        },
        {
          "internalType": "address",
          "name": "spender_",
          "type": "address"
        }
      ],
      "name": "allowance",
      "outputs": [
        {
          "internalType": "uint256",
          "name": "",
          "type": "uint256"
        }
      ],
      "stateMutability": "view",
      "type": "function"
    },
    {
      "inputs": [
        {
          "internalType": "address",
          "name": "spender_",
          "type": "address"
        },
        {
          "internalType": "uint256",
          "name": "amount_",
          "type": "uint256"
        }
      ],
      "name": "approve",
      "outputs": [
        {
          "internalType": "bool",
          "name": "",
          "type": "bool"
        }
      ],
      "stateMutability": "nonpayable",
      "type": "function"
    },
    {
      "inputs": [
        {
          "internalType": "address",
          "name": "account_",
          "type": "address"
        }
      ],
      "name": "balanceOf",
      "outputs": [
        {
          "internalType": "uint256",
          "name": "",
          "type": "uint256"
        }
      ],
      "stateMutability": "view",
      "type": "function"
    },
    {
      "inputs": [],
      "name": "decimals",
      "outputs": [
        {
          "internalType": "uint8",
          "name": "",
          "type": "uint8"
        }
      ],
      "stateMutability": "view",
      "type": "function"
    },
    {
      "inputs": [
        {
          "internalType": "address",
          "name": "spender_",
          "type": "address"
        },
        {
          "internalType": "uint256",
          "name": "subtractedValue_",
          "type": "uint256"
        }
      ],
      "name": "decreaseAllowance",
      "outputs": [
        {
          "internalType": "bool",
          "name": "",
          "type": "bool"
        }
      ],
      "stateMutability": "nonpayable",
      "type": "function"
    },
    {
      "inputs": [
        {
          "internalType": "address",
          "name": "spender_",
          "type": "address"
        },
        {
          "internalType": "uint256",
          "name": "addedValue_",
          "type": "uint256"
        }
      ],
      "name": "increaseAllowance",
      "outputs": [
        {
          "internalType": "bool",
          "name": "",
          "type": "bool"
        }
      ],
      "stateMutability": "nonpayable",
      "type": "function"
    },
    {
      "inputs": [],
      "name": "initialized",
      "outputs": [
        {
          "internalType": "bool",
          "name": "",
          "type": "bool"
        }
      ],
      "stateMutability": "view",
      "type": "function"
    },
    {
      "inputs": [],
      "name": "name",
      "outputs": [
        {
          "internalType": "string",
          "name": "",
          "type": "string"
        }
      ],
      "stateMutability": "view",
      "type": "function"
    },
    {
      "inputs": [],
      "name": "owner",
      "outputs": [
        {
          "internalType": "address",
          "name": "",
          "type": "address"
        }
      ],
      "stateMutability": "view",
      "type": "function"
    },
    {
      "inputs": [],
      "name": "pause",
      "outputs": [],
      "stateMutability": "nonpayable",
      "type": "function"
    },
    {
      "inputs": [],
      "name": "paused",
      "outputs": [
        {
          "internalType": "bool",
          "name": "",
          "type": "bool"
        }
      ],
      "stateMutability": "view",
      "type": "function"
    },
    {
      "inputs": [],
      "name": "symbol",
      "outputs": [
        {
          "internalType": "string",
          "name": "",
          "type": "string"
        }
      ],
      "stateMutability": "view",
      "type": "function"
    },
    {
      "inputs": [],
      "name": "totalSupply",
      "outputs": [
        {
          "internalType": "uint256",
          "name": "",
          "type": "uint256"
        }
      ],
      "stateMutability": "view",
      "type": "function"
    },
    {
      "inputs": [
        {
          "internalType": "address",
          "name": "recipient_",
          "type": "address"
        },
        {
          "internalType": "uint256",
          "name": "amount_",
          "type": "uint256"
        }
      ],
      "name": "transfer",
      "outputs": [
        {
          "internalType": "bool",
          "name": "",
          "type": "bool"
        }
      ],
      "stateMutability": "nonpayable",
      "type": "function"
    },
    {
      "inputs": [
        {
          "internalType": "address",
          "name": "sender_",
          "type": "address"
        },
        {
          "internalType": "address",
          "name": "recipient_",
          "type": "address"
        },
        {
          "internalType": "uint256",
          "name": "amount_",
          "type": "uint256"
        }
      ],
      "name": "transferFrom",
      "outputs": [
        {
          "internalType": "bool",
          "name": "",
          "type": "bool"
        }
      ],
      "stateMutability": "nonpayable",
      "type": "function"
    },
    {
      "inputs": [
        {
          "internalType": "address",
          "name": "newOwner_",
          "type": "address"
        }
      ],
      "name": "transferOwnership",
      "outputs": [],
      "stateMutability": "nonpayable",
      "type": "function"
    },
    {
      "inputs": [],
      "name": "unpause",
      "outputs": [],
      "stateMutability": "nonpayable",
      "type": "function"
    },
    {
      "inputs": [
        {
          "internalType": "address",
          "name": "owner_",
          "type": "address"
        },
        {
          "internalType": "uint8",
          "name": "decimals_",
          "type": "uint8"
        },
        {
          "internalType": "string",
          "name": "name_",
          "type": "string"
        },
        {
          "internalType": "string",
          "name": "symbol_",
          "type": "string"
        }
      ],
      "name": "initialize",
      "outputs": [
        {
          "internalType": "bool",
          "name": "",
          "type": "bool"
        }
      ],
      "stateMutability": "nonpayable",
      "type": "function"
    },
    {
      "inputs": [
        {
          "internalType": "address",
          "name": "owner_",
          "type": "address"
        },
        {
          "internalType": "address",
          "name": "signer_",
          "type": "address"
        }
      ],
      "name": "initialize",
      "outputs": [
        {
          "internalType": "bool",
          "name": "",
          "type": "bool"
        }
      ],
      "stateMutability": "nonpayable",
      "type": "function"
    },
    {
      "inputs": [
        {
          "internalType": "bytes32",
          "name": "hydTxId_",
          "type": "bytes32"
        },
        {
          "internalType": "uint256",
          "name": "amount_",
          "type": "uint256"
        },
        {
          "internalType": "uint8",
          "name": "v_",
          "type": "uint8"
        },
        {
          "internalType": "bytes32",
          "name": "r_",
          "type": "bytes32"
        },
        {
          "internalType": "bytes32",
          "name": "s_",
          "type": "bytes32"
        }
      ],
      "name": "mintWrappedHydra",
      "outputs": [],
      "stateMutability": "nonpayable",
      "type": "function"
    },
    {
      "inputs": [
        {
          "internalType": "bytes32",
          "name": "hydAddress_",
          "type": "bytes32"
        },
        {
          "internalType": "bytes32",
          "name": "secret_",
          "type": "bytes32"
        },
        {
          "internalType": "uint256",
          "name": "amount_",
          "type": "uint256"
        },
        {
          "internalType": "uint8",
          "name": "v_",
          "type": "uint8"
        },
        {
          "internalType": "bytes32",
          "name": "r_",
          "type": "bytes32"
        },
        {
          "internalType": "bytes32",
          "name": "s_",
          "type": "bytes32"
        }
      ],
      "name": "burnWrappedHydra",
      "outputs": [],
      "stateMutability": "nonpayable",
      "type": "function"
    },
    {
      "inputs": [
        {
          "internalType": "address",
          "name": "newSigner_",
          "type": "address"
        }
      ],
      "name": "changeSigner",
      "outputs": [],
      "stateMutability": "nonpayable",
      "type": "function"
    },
    {
      "inputs": [],
      "name": "signer",
      "outputs": [
        {
          "internalType": "address",
          "name": "",
          "type": "address"
        }
      ],
      "stateMutability": "view",
      "type": "function"
    }
  ],
  "bytecode": "0x608060405234801561001057600080fd5b506118e7806100206000396000f3fe608060405234801561001057600080fd5b50600436106101205760e060020a600035046306fdde038114610125578063095ea7b314610143578063158ef93e1461016357806318160ddd1461016b578063238ac9331461018057806323b872dd14610195578063313ce567146101a857806339509351146101bd5780633f4ba83a146101d057806342fe0980146101da578063485cc955146101ed5780635c975abb1461020057806370a08231146102085780638456cb591461021b5780638da5cb5b1461022357806395d89b411461022b57806396b6e11f14610233578063a457c2d714610246578063a9059cbb14610259578063aad2b7231461026c578063dd62ed3e1461027f578063e59bbda214610292578063f2fde38b146102a5575b600080fd5b61012d6102b8565b60405161013a919061131e565b60405180910390f35b61015661015136600461115b565b61034a565b60405161013a91906112ec565b610156610360565b610173610370565b60405161013a9190611315565b610188610376565b60405161013a91906112d8565b6101566101a3366004611120565b610385565b6101b06103fa565b60405161013a91906117c1565b6101566101cb36600461115b565b61040a565b6101d8610446565b005b6101566101e8366004611184565b61047d565b6101566101fb3660046110ee565b61059a565b61015661063a565b6101736102163660046110d4565b61064a565b6101d8610669565b61018861069e565b61012d6106ad565b6101d8610241366004611255565b6106bc565b61015661025436600461115b565b610730565b61015661026736600461115b565b61078e565b6101d861027a3660046110d4565b61079b565b61017361028d3660046110ee565b610841565b6101d86102a0366004611205565b61086c565b6101d86102b33660046110d4565b6108c3565b6060600180546102c7906117fe565b80601f01602080910402602001604051908101604052809291908181526020018280546102f3906117fe565b80156103405780601f1061031557610100808354040283529160200191610340565b820191906000526020600020905b81548152906001019060200180831161032357829003601f168201915b5050505050905090565b6000610357338484610963565b50600192915050565b60035460b060020a900460ff1690565b60005490565b600654600160a060020a031690565b6000610392848484610a4a565b600160a060020a0384166000908152600560209081526040808320338452909152902054828110156103e25760405160e560020a62461bcd0281526004016103d9906113ff565b60405180910390fd5b6103ef8533858403610963565b506001949350505050565b60035460a860020a900460ff1690565b336000818152600560209081526040808320600160a060020a038716845290915281205490916103579185906104419086906117cf565b610963565b600354600160a060020a031633146104735760405160e560020a62461bcd0281526004016103d990611394565b61047b610bb7565b565b60035460009060b060020a900460ff16156104ad5760405160e560020a62461bcd0281526004016103d9906116b8565b600160a060020a0385166104d65760405160e560020a62461bcd0281526004016103d990611443565b6003805460b060020a60b060020a60ff021990911617600160a060020a031916600160a060020a0387161760a860020a60ff02191660a860020a60ff871602179055825161052b906001906020860190610f93565b50815161053f906002906020850190610f93565b50604051309081906000805160206118928339815191529061056390600090611315565b60405180910390a3604051600160a060020a03861690600090600080516020611872833981519152908290a3506001949350505050565b6000600160a060020a0382166105c55760405160e560020a62461bcd0281526004016103d990611684565b60068054600160a060020a031916600160a060020a038416179055604080518082018252600d8152609860020a6c577261707065642048796472610260208083019190915282518084019093526004835260e260020a6315d21651029083015261063391859160089161047d565b9392505050565b60035460a060020a900460ff1690565b600160a060020a0381166000908152600460205260409020545b919050565b600354600160a060020a031633146106965760405160e560020a62461bcd0281526004016103d990611394565b61047b610c1e565b600354600160a060020a031690565b6060600280546102c7906117fe565b6106f23386866040516020016106d49392919061129b565b60405160208183030381529060405280519060200120848484610c8c565b6106fc3385610dd0565b604051849033907fa58cbbb4ad5d38e2ed903a55bc0a278a34dd01345aca29bec5e51d692350145290600090a35050505050565b336000908152600560209081526040808320600160a060020a0386168452909152812054828110156107775760405160e560020a62461bcd0281526004016103d990611578565b6107843385858403610963565b5060019392505050565b6000610357338484610a4a565b600354600160a060020a031633146107c85760405160e560020a62461bcd0281526004016103d990611394565b600160a060020a0381166107f15760405160e560020a62461bcd0281526004016103d990611684565b60068054600160a060020a031916600160a060020a0383811691909117918290556040519116907fffafe5c39be83f4bcf20d7e1a150f6e21c1858ea0948315ba84b6b1c386d45bb90600090a250565b600160a060020a03918216600090815260056020908152604080832093909416825291909152205490565b6108848686866040516020016106d4939291906112c2565b61088e3385610ea1565b604051849033907fd6f811082282fcd48bc0904e5f578b143ca8a184e2752e70b136ac6dc21fcbe690600090a3505050505050565b600354600160a060020a031633146108f05760405160e560020a62461bcd0281526004016103d990611394565b600160a060020a0381166109195760405160e560020a62461bcd0281526004016103d990611443565b600354604051600160a060020a0380841692169060008051602061187283398151915290600090a360038054600160a060020a031916600160a060020a0392909216919091179055565b60035460a060020a900460ff16156109905760405160e560020a62461bcd0281526004016103d990611371565b600160a060020a0383166109b95760405160e560020a62461bcd0281526004016103d990611541565b600160a060020a0382166109e25760405160e560020a62461bcd0281526004016103d9906113c8565b600160a060020a0380841660008181526005602090815260408083209487168084529490915290819020849055517f8c5be1e5ebec7d5bd14f71427d1e84f3dd0314c0f7b2291e5b200ac8c7c3b92590610a3d908590611315565b60405180910390a3505050565b60035460a060020a900460ff1615610a775760405160e560020a62461bcd0281526004016103d990611371565b600160a060020a038316610aa05760405160e560020a62461bcd0281526004016103d99061178a565b600160a060020a038216610ac95760405160e560020a62461bcd0281526004016103d990611753565b81600160a060020a031683600160a060020a03161415610afe5760405160e560020a62461bcd0281526004016103d99061161d565b600160a060020a03831660009081526004602052604090205481811015610b3a5760405160e560020a62461bcd0281526004016103d9906115af565b600160a060020a03808516600090815260046020526040808220858503905591851681529081208054849290610b719084906117cf565b9250508190555082600160a060020a031684600160a060020a031660008051602061189283398151915284604051610ba99190611315565b60405180910390a350505050565b60035460a060020a900460ff16610be35760405160e560020a62461bcd0281526004016103d9906114ad565b6003805460a060020a60ff02191690556040517fa45f47fdea8a1efdd9029a5691c7f759c32b7c698632b563573e155625d1693390600090a1565b60035460a060020a900460ff1615610c4b5760405160e560020a62461bcd0281526004016103d990611371565b6003805460a060020a60ff02191660a060020a1790556040517f9e87fac88ff661f02d44f95383c817fece4bce600a3dab7a54406878b965e75290600090a1565b6fa2a8918ca85bafe22016d0b997e4df6060ff60020a03811115610cc55760405160e560020a62461bcd0281526004016103d9906114d4565b8260ff16601b1480610cda57508260ff16601c145b610cf95760405160e560020a62461bcd0281526004016103d99061171d565b60008481526007602052604090205460ff1615610d2b5760405160e560020a62461bcd0281526004016103d99061147a565b600060018585858560405160008152602001604052604051610d5094939291906112f7565b6020604051602081039080840390855afa158015610d72573d6000803e3d6000fd5b5050604051601f190151600654909250600160a060020a038084169116149050610db15760405160e560020a62461bcd0281526004016103d99061164d565b505050600091825250600760205260409020805460ff19166001179055565b60035460a060020a900460ff1615610dfd5760405160e560020a62461bcd0281526004016103d990611371565b600160a060020a038216610e265760405160e560020a62461bcd0281526004016103d9906116e8565b80600080828254610e3791906117cf565b9091555050600160a060020a03821660009081526004602052604081208054839290610e649084906117cf565b9091555050604051600160a060020a0383169060009060008051602061189283398151915290610e95908590611315565b60405180910390a35050565b60035460a060020a900460ff1615610ece5760405160e560020a62461bcd0281526004016103d990611371565b600160a060020a038216610ef75760405160e560020a62461bcd0281526004016103d99061150a565b600160a060020a03821660009081526004602052604090205481811015610f335760405160e560020a62461bcd0281526004016103d9906115e6565b600160a060020a0383166000908152600460205260408120838303905580548391908190610f629084906117e7565b9091555050604051600090600160a060020a0385169060008051602061189283398151915290610a3d908690611315565b828054610f9f906117fe565b90600052602060002090601f016020900481019282610fc15760008555611007565b82601f10610fda57805160ff1916838001178555611007565b82800160010185558215611007579182015b82811115611007578251825591602001919060010190610fec565b50611013929150611017565b5090565b5b808211156110135760008155600101611018565b8035600160a060020a038116811461066457600080fd5b600082601f830112611053578081fd5b81356001604060020a038082111561106d5761106d611857565b604051601f8301601f19168101602001828111828210171561109157611091611857565b6040528281528483016020018610156110a8578384fd5b82602086016020830137918201602001929092529392505050565b803560ff8116811461066457600080fd5b6000602082840312156110e5578081fd5b6106338261102c565b60008060408385031215611100578081fd5b6111098361102c565b91506111176020840161102c565b90509250929050565b600080600060608486031215611134578081fd5b61113d8461102c565b925061114b6020850161102c565b9150604084013590509250925092565b6000806040838503121561116d578182fd5b6111768361102c565b946020939093013593505050565b60008060008060808587031215611199578081fd5b6111a28561102c565b93506111b0602086016110c3565b925060408501356001604060020a03808211156111cb578283fd5b6111d788838901611043565b935060608701359150808211156111ec578283fd5b506111f987828801611043565b91505092959194509250565b60008060008060008060c0878903121561121d578182fd5b86359550602087013594506040870135935061123b606088016110c3565b92506080870135915060a087013590509295509295509295565b600080600080600060a0868803121561126c578081fd5b8535945060208601359350611283604087016110c3565b94979396509394606081013594506080013592915050565b600160a060020a0393909316606060020a0283526014830191909152603482015260540190565b9283526020830191909152604082015260600190565b600160a060020a0391909116815260200190565b901515815260200190565b93845260ff9290921660208401526040830152606082015260800190565b90815260200190565b6000602080835283518082850152825b8181101561134a5785810183015185820160400152820161132e565b8181111561135b5783604083870101525b50601f01601f1916929092016040019392505050565b602080825260069082015260d260020a6514185d5cd95902604082015260600190565b6020808252601790820152604960020a7621b0b63632b91034b9903737ba103a34329037bbb732b902604082015260600190565b6020808252601b908201527f417070726f766520746f20746865207a65726f20616464726573730000000000604082015260600190565b60208082526021908201527f5472616e7366657220616d6f756e74206578636565647320616c6c6f77616e63604082015260f860020a606502606082015260800190565b6020808252601a908201527f4e6577206f776e657220686173207a65726f2061646472657373000000000000604082015260600190565b6020808252601690820152605260020a7514da59db985d1d5c9948185b1c9958591e481d5cd95902604082015260600190565b6020808252600a9082015260b260020a69139bdd081c185d5cd95902604082015260600190565b6020808252601990820152603860020a78496e76616c6964207369676e617475726520732076616c756502604082015260600190565b6020808252601a908201527f4275726e2066726f6d20746865207a65726f2061646472657373000000000000604082015260600190565b6020808252601d908201527f417070726f76652066726f6d20746865207a65726f2061646472657373000000604082015260600190565b6020808252601e908201527f44656372656173656420616c6c6f77616e63652062656c6f77207a65726f0000604082015260600190565b6020808252601f908201527f5472616e7366657220616d6f756e7420657863656564732062616c616e636500604082015260600190565b6020808252601b908201527f4275726e20616d6f756e7420657863656564732062616c616e63650000000000604082015260600190565b6020808252601390820152606960020a722a3930b739b332b9103a37903434b6b9b2b63302604082015260600190565b6020808252601d908201527f5369676e617475726520766572696669636174696f6e206661696c6564000000604082015260600190565b6020808252601790820152604860020a765369676e657220686173207a65726f206164647265737302604082015260600190565b6020808252601390820152606a60020a72105b1c9958591e481a5b9a5d1a585b1a5e995902604082015260600190565b6020808252601890820152604060020a774d696e7420746f20746865207a65726f206164647265737302604082015260600190565b6020808252601990820152603860020a78496e76616c6964207369676e617475726520762076616c756502604082015260600190565b6020808252601c908201527f5472616e7366657220746f20746865207a65726f206164647265737300000000604082015260600190565b6020808252601e908201527f5472616e736665722066726f6d20746865207a65726f20616464726573730000604082015260600190565b60ff91909116815260200190565b600082198211156117e2576117e261183d565b500190565b6000828210156117f9576117f961183d565b500390565b60028104600182168061181257607f821691505b602082108114156118375760e060020a634e487b710260009081526022600452602490fd5b50919050565b60e060020a634e487b710260009081526011600452602490fd5b60e060020a634e487b710260009081526041600452602490fdfe8be0079c531659141344cd1fd0a4f28419497f9722a3daafe3b4186f6b6457e0ddf252ad1be2c89b69c2b068fc378daa952ba7f163c4a11628f55a4df523b3efa26469706673582212200a09f2ece725fb741f35265059d34a83d4e09436391018bc080b2db388361d8164736f6c63430008000033",
  "immutableReferences": {},
  "source": "// SPDX-License-Identifier: UNLICENSED\npragma solidity 0.8.0;\n\ncontract TokenBase {\n\t/* Variables */\n\tuint256 private _totalSupply;\n\tstring  private _name;\n\tstring  private _symbol;\n\taddress private _owner;\n\tbool    private _paused;\n\tuint8   private _decimals;\n\tbool    private _initialized;\n\tmapping (address => uint256)                      private _balances;\n\tmapping (address => mapping (address => uint256)) private _allowances;\n\n\t/* Modifiers */\n\tmodifier onlyOwner() {\n\t\trequire( _owner == msg.sender, \"Caller is not the owner\" );\n\t\t_;\n\t}\n\tmodifier whenNotPaused() {\n\t\trequire( ! _paused, \"Paused\" );\n\t\t_;\n\t}\n\tmodifier whenPaused() {\n\t\trequire( _paused, \"Not paused\" );\n\t\t_;\n\t}\n\n\t/* Externals */\n\tfunction initialize(address owner_, uint8 decimals_, string memory name_, string memory symbol_) public returns (bool) {\n\t\trequire( ! _initialized, \"Already initialized\" );\n\t\trequire( owner_ != address(0), \"New owner has zero address\" );\n\t\t_initialized = true;\n\t\t_owner       = owner_;\n\t\t_decimals    = decimals_;\n\t\t_name        = name_;\n\t\t_symbol      = symbol_;\n\t\temit Transfer(address(this), address(this), 0);\n\t\temit OwnershipTransferred(address(0), owner_);\n\t\treturn true;\n\t}\n\tfunction transfer(address recipient_, uint256 amount_) external returns (bool) {\n\t\t_transfer(msg.sender, recipient_, amount_);\n\t\treturn true;\n\t}\n\tfunction transferFrom(address sender_, address recipient_, uint256 amount_) external returns (bool) {\n\t\t_transfer(sender_, recipient_, amount_);\n\t\tuint256 currentAllowance = _allowances[sender_][msg.sender];\n\t\trequire( currentAllowance >= amount_, \"Transfer amount exceeds allowance\" );\n\t\tunchecked {\n\t\t\t_approve(sender_, msg.sender, currentAllowance - amount_);\n\t\t}\n\t\treturn true;\n\t}\n\tfunction approve(address spender_, uint256 amount_) external returns (bool) {\n\t\t_approve(msg.sender, spender_, amount_);\n\t\treturn true;\n\t}\n\tfunction increaseAllowance(address spender_, uint256 addedValue_) external returns (bool) {\n\t\t_approve(msg.sender, spender_, _allowances[msg.sender][spender_] + addedValue_);\n\t\treturn true;\n\t}\n\tfunction decreaseAllowance(address spender_, uint256 subtractedValue_) external returns (bool) {\n\t\tuint256 currentAllowance = _allowances[msg.sender][spender_];\n\t\trequire( currentAllowance >= subtractedValue_, \"Decreased allowance below zero\" );\n\t\tunchecked {\n\t\t\t_approve(msg.sender, spender_, currentAllowance - subtractedValue_);\n\t\t}\n\t\treturn true;\n\t}\n\tfunction pause() external onlyOwner {\n\t\t_pause();\n\t}\n\tfunction unpause() external onlyOwner {\n\t\t_unpause();\n\t}\n\tfunction transferOwnership(address newOwner_) external onlyOwner {\n\t\trequire( newOwner_ != address(0), \"New owner has zero address\" );\n\t\temit OwnershipTransferred(_owner, newOwner_);\n\t\t_owner = newOwner_;\n\t}\n\n\t/* Constants */\n\tfunction name() external view returns (string memory) {\n\t\treturn _name;\n\t}\n\tfunction symbol() external view returns (string memory) {\n\t\treturn _symbol;\n\t}\n\tfunction decimals() external view returns (uint8) {\n\t\treturn _decimals;\n\t}\n\tfunction totalSupply() external view returns (uint256) {\n\t\treturn _totalSupply;\n\t}\n\tfunction balanceOf(address account_) external view returns (uint256) {\n\t\treturn _balances[account_];\n\t}\n\tfunction allowance(address owner_, address spender_) external view returns (uint256) {\n\t\treturn _allowances[owner_][spender_];\n\t}\n\tfunction paused() external view returns (bool) {\n\t\treturn _paused;\n\t}\n\tfunction owner() external view returns (address) {\n\t\treturn _owner;\n\t}\n\tfunction initialized() external view returns (bool) {\n\t\treturn _initialized;\n\t}\n\n\t/* Internals */\n\tfunction _transfer(address sender_, address recipient_, uint256 amount_) internal whenNotPaused {\n\t\trequire( sender_ != address(0), \"Transfer from the zero address\" );\n\t\trequire( recipient_ != address(0), \"Transfer to the zero address\" );\n\t\trequire( sender_ != recipient_, \"Transfer to himself\" );\n\t\tuint256 senderBalance = _balances[sender_];\n\t\trequire( senderBalance >= amount_, \"Transfer amount exceeds balance\" );\n\t\tunchecked {\n\t\t\t_balances[sender_] = senderBalance - amount_;\n\t\t}\n\t\t_balances[recipient_] += amount_;\n\t\temit Transfer(sender_, recipient_, amount_);\n\t}\n\tfunction _mint(address account_, uint256 amount_) internal whenNotPaused {\n\t\trequire( account_ != address(0), \"Mint to the zero address\" );\n\t\t_totalSupply += amount_;\n\t\t_balances[account_] += amount_;\n\t\temit Transfer(address(0), account_, amount_);\n\t}\n\tfunction _burn(address account_, uint256 amount_) internal whenNotPaused {\n\t\trequire( account_ != address(0), \"Burn from the zero address\" );\n\t\tuint256 accountBalance = _balances[account_];\n\t\trequire( accountBalance >= amount_, \"Burn amount exceeds balance\" );\n\t\tunchecked {\n\t\t\t_balances[account_] = accountBalance - amount_;\n\t\t}\n\t\t_totalSupply -= amount_;\n\t\temit Transfer(account_, address(0), amount_);\n\t}\n\tfunction _approve(address owner_, address spender_, uint256 amount_) internal whenNotPaused {\n\t\trequire( owner_ != address(0), \"Approve from the zero address\" );\n\t\trequire( spender_ != address(0), \"Approve to the zero address\" );\n\t\t_allowances[owner_][spender_] = amount_;\n\t\temit Approval(owner_, spender_, amount_);\n\t}\n\tfunction _pause() internal whenNotPaused {\n\t\t_paused = true;\n\t\temit Paused();\n\t}\n\tfunction _unpause() internal whenPaused {\n\t\t_paused = false;\n\t\temit Unpaused();\n\t}\n\n\t/* Events */\n\tevent Transfer(address indexed from, address indexed to, uint256 value);\n\tevent Approval(address indexed owner, address indexed spender, uint256 value);\n\tevent OwnershipTransferred(address indexed previousOwner, address indexed newOwner);\n\tevent Paused();\n\tevent Unpaused();\n}\n\ncontract WrappedHydra is TokenBase {\n\t/* Variables */\n\taddress internal _signer;\n\tmapping (bytes32 => bool) internal _usedMessages;\n\n\t/* Externals */\n\tfunction initialize(address owner_, address signer_) external returns (bool) {\n\t\trequire( signer_ != address(0), \"Signer has zero address\" );\n\t\t_signer = signer_;\n\t\treturn super.initialize(owner_, 8, \"Wrapped Hydra\", \"WHYD\");\n\t}\n\tfunction mintWrappedHydra(bytes32 hydTxId_, uint256 amount_, uint8 v_, bytes32 r_, bytes32 s_) external {\n\t\tcheckSignature(\n\t\t\tkeccak256(abi.encodePacked( msg.sender, hydTxId_, amount_ )),\n\t\t\tv_,\n\t\t\tr_,\n\t\t\ts_\n\t\t);\n\t\t_mint(msg.sender, amount_);\n\t\temit BridgedIn(msg.sender, amount_);\n\t}\n\tfunction burnWrappedHydra(bytes32 hydAddress_, bytes32 secret_, uint256 amount_, uint8 v_, bytes32 r_, bytes32 s_) external {\n\t\tcheckSignature(\n\t\t\tkeccak256(abi.encodePacked( hydAddress_, secret_, amount_ )),\n\t\t\tv_,\n\t\t\tr_,\n\t\t\ts_\n\t\t);\n\t\t_burn(msg.sender, amount_);\n\t\temit BridgedOut(msg.sender, amount_);\n\t}\n\tfunction changeSigner(address newSigner_) external onlyOwner {\n\t\trequire( newSigner_ != address(0), \"Signer has zero address\" );\n\t\t_signer = newSigner_;\n\t\temit NewSigner(_signer);\n\t}\n\n\t/* Constants */\n\tfunction signer() public view returns (address) {\n\t\treturn _signer;\n\t}\n\n\t/* Internals */\n\tfunction checkSignature(bytes32 messageHash_, uint8 v_, bytes32 r_, bytes32 s_) internal {\n\t\trequire( uint256(s_)<=0x7FFFFFFFFFFFFFFFFFFFFFFFFFFFFFFF5D576E7357A4501DDFE92F46681B20A0, \"Invalid signature s value\" );\n\t\trequire( v_ == 27 || v_ == 28, \"Invalid signature v value\" );\n\t\trequire( ! _usedMessages[messageHash_], \"Signature already used\" );\n\t\taddress signerAddress = ecrecover(messageHash_, v_, r_, s_);\n\t\trequire( signerAddress == _signer, \"Signature verification failed\" );\n\t\t_usedMessages[messageHash_] = true;\n\t}\n\n\t/* Events */\n\tevent BridgedIn(address indexed addr, uint256 indexed value);\n\tevent BridgedOut(address indexed addr, uint256 indexed value);\n\tevent NewSigner(address indexed addr);\n}\n",
  "sourcePath": "/home/ddt/IOP/DeFi/contracts/contracts/WrappedHydra.sol",
  "compiler": {
    "name": "solc",
    "version": "0.8.0+commit.c7dfd78e.Emscripten.clang"
  },
  "schemaVersion": "3.4.0",
  "updatedAt": "2021-08-24T09:44:40.523Z",
  "devdoc": {
    "kind": "dev",
    "methods": {},
    "version": 1
  },
  "userdoc": {
    "kind": "user",
    "methods": {},
    "version": 1
  }
}